:10000000803110289631DC2E7E1480310B1F0E2893
:100010002E001A18101C0E2893312E237E10090072
:1000200080311228D6308400923085004D30860011
:10003000013087001030923132228031F901FA010B
:10004000FB01FC01C8308400003085002030923173
:100050002C22803120308400013085002D309231F7
:100060002C228031A0308400013085004330923151
:100070002C227E1020009631C12EAE002D08123E9B
:1000800086008701010893315623803121002D0815
:10009000123E860087010108943118248031210026
:1000A0002D08103E8600870107300102031C6828D6
:1000B0002D08103E860087010730010603196828C5
:1000C0002D08103E860087010B300106031DA9286C
:1000D0002D08043E86008701E8302000A000033090
:1000E000A10021002D08043E84008501003F20006E
:1000F000A200013FA3009631F42680312108A90017
:100100002008A8001830AA00FC30AB009331E0238F
:100110008031403F28072100AF00413F2000293DAA
:100120002100B0002F08B1003008B2002E30A0002E
:100130009830A100E8302000A0000330A100210089
:100140002D08043E86008701403F2000A200413F69
:10015000E6282D0886008701E8302000A000033043
:10016000A10021002D0884008501003F2000A2008D
:10017000013FA3009631F42680312108A900200810
:10018000A8001830AA00FC30AB009331E023803186
:10019000403F28072100AF00413F2000293D2100BA
:1001A000B0002F08B1003008B2002E30A000983007
:1001B000A100E8302000A0000330A10021002D089C
:1001C00086008701403F2000A200413FA3009631F6
:1001D000F426803121082100A300200020082100FE
:1001E000A2003208A5003108A4003D309531AD25AC
:1001F000803121002D0886008701523F2000D00069
:100200003D302100AF002F082000D1002A3094316A
:10021000EC2C21002D0886008701523F2000C300EE
:1002200002302100AF002F082000C400C501C50A1C
:1002300000308831952821002D08103E8600870166
:1002400007300102031C34292D08103E8600870167
:1002500008300106031934292D08103E8600870155
:100260000C300106031D75292D08063E8600870106
:10027000E8302000A0000330A10021002D08063E38
:1002800084008501003F2000A200013FA3009631B9
:10029000F42680312108A9002008A8001830AA00FF
:1002A000FC30AB009331E0238031403F2807210030
:1002B000AF00413F2000293D2100B0002F08B100D0
:1002C0003008B2002030A0009830A100E8302000B3
:1002D000A0000330A10021002D08063E8600870102
:1002E000403F2000A200413FB5292D08023E860074
:1002F0008701E8302000A0000330A10021002D0874
:10030000023E84008501003F2000A200013FA300BF
:100310009631F42680312108A9002008A800183061
:10032000AA00FC30AB009331E0238031403F280726
:100330002100AF00413F2000293D2100B0002F08DF
:10034000B1003008B2002030A0009830A100E830A1
:100350002000A0000330A10021002D08023E8600ED
:100360008701403F2000A200413FA3009631F426C0
:10037000803121082100A300200020082100A200D4
:100380003208A5003108A4003D309531AD258031FB
:1003900021002D0886008701523F2000D0003D300B
:1003A0002100AF002F082000D1002C309431EC2C1C
:1003B00021002D0886008701523F2000C300C401A0
:1003C000C40A10302100AF002F082000C500023001
:1003D0008831952821002D08113E860087010108EB
:1003E000031D012A2D0886008701523F2000CB0003
:1003F00006302100AF002F082000CC0014308731D8
:10040000A22F2D08113E860087010103031D782AC3
:100410002D0886008701523F2000CB0005302100C7
:10042000AF002F082000CC0016308731A22F21000A
:100430002D0886008701523F2000C30002302100B2
:10044000AF002F082000C40010302100B000300899
:100450002000C50004308831952821002D08103E69
:100460008600870107300102031C5C2A2D08103E1C
:10047000860087010A300106031D4D2A2D088600DB
:100480008701523F2000CB0003302100AF002F082E
:100490002000CC001A308731A22F2D08860087015A
:1004A000523F2000CB0002302100AF002F08200077
:1004B000CC001C308731A22F2D08103E860087010A
:1004C00003300106031D872A2D0886008701523F4D
:1004D0002000CB00CC01CC0A1E308731A22F210096
:1004E0002D08103E8600870101080319A92A912AC8
:1004F0002D0886008701523F2000CB0004302100E8
:10050000AF002F082000CC0018308731A22F2D0813
:1005100086008701523F2000CB00CC01203087317C
:10052000A22F2D08103E8600870104300106031912
:10053000A92A2D08103E86008701073001060319FD
:10054000A92A2D08103E860087010B300106031DE5
:10055000C72A2D0886008701523F2000C300C4012E
:10056000C40AC501C50A06308831952821002D0826
:1005700086008701523F2000CB003E302100AF00B3
:100580002F082000CC0022308A31EE2A492B2D087A
:10059000103E8600870101030319E62A2D08103E4C
:1005A00086008701053001060319E62A2D08103E52
:1005B00086008701083001060319E62A2D08103E3F
:1005C000860087010C300106031D082B2D088600CC
:1005D0008701523F2000C30002302100AF002F08E6
:1005E0002000C400C501C50A0830883195282100C3
:1005F0002D0886008701523F2000CB003E302100AD
:10060000AF002F082000CC0024308A31EE2A492B7D
:100610002D08103E86008701023001060319282BA1
:100620002D08103E86008701063001060319282B8D
:100630002D08103E86008701093001060319282B7A
:100640002D08103E860087010D300106031D492B41
:100650002D0886008701523F2000C300C401C40A50
:100660000F302100AF002F082000C5000A3088316C
:10067000952821002D0886008701523F2000CB00DD
:100680003E302100AF002F082000CC0026308A31F8
:10069000EE2A210087312E088200B5005403031989
:1006A0005A2C932C3308103E86008701010834072A
:1006B0000339632B3308103E860087010108340795
:1006C000F93E0339073EB6003308103E472C330885
:1006D000043E8600870134082000A800A901A81B59
:1006E000A90321003308083E84008501003F200053
:1006F000AA00013FAB009331E0238331403F28073C
:100700002100B600413F2000293D2100B7003308F9
:10071000043E860087013608C03F3708C13F3308D2
:10072000043E86008701403FB600413FB700FF30DE
:100730003702793003193602031CAB2B33080C3E09
:10074000860087013308043E84008501403F803FD6
:10075000413F813FDC2D3308043E86008701403F46
:10076000B600413FB70033080C3E86008701403F8A
:10077000B800413FB90037083902031DC12B3608C4
:1007800038020318DC2D3308043E86008701003050
:10079000C03FC13FDC2D3308063E86008701340888
:1007A0002000A800A901A81BA903210033080A3EC4
:1007B00084008501003F2000AA00013FAB00933177
:1007C000E0238331403F28072100B600413F20004D
:1007D000293D2100B7003308063E86008701360810
:1007E000C03F3708C13F3308063E86008701403FBF
:1007F000B600413FB700FF303702793003193602A7
:10080000031C0F2C33080E3E860087013308063E7A
:1008100084008501403F803F413F813FDC2D33080C
:10082000063E86008701403FB600413FB7003308CF
:100830000E3E86008701403FB800413FB9003708AF
:100840003902031D252C360838020318DC2D330825
:10085000063E860087010030C03FC13FDC2D3308D3
:10086000113E8600870101083407B6003308113EA7
:1008700086008701360881003308113E8600870113
:10088000010A031D4C2C0230B6003308113E8600CD
:10089000870136088100DC2D3308113E8600870170
:1008A00003300102031CDC2D3308113E8600870152
:1008B0008101DC2D3308103E860087010108B60057
:1008C000B7013708003A0319662CDC2D3608003AC8
:1008D0000319522B013A0319522B033A0319522BD5
:1008E000013A0319522B073A0319672B013A0319EE
:1008F000CB2B033A03192F2C013A03195A2B0F3A29
:1009000003195A2B013A03195A2B033A03195A2B8C
:10091000013A0319672B073A0319CB2B013A031944
:100920002F2CDC2DDC2D0230540603199C2DD42DE8
:100930000430B6003308103E860087013608810770
:10094000DC2D442D0F30B6000030B7003308083ED0
:10095000860087013608C03F3708C13F0530B60022
:100960000030B70033080A3E860087013608C03FD2
:100970003708C13F442D2D30B6000030B700330892
:10098000083E860087013608C03F3708C13F323035
:10099000B6000030B70033080A3E860087013608EB
:1009A000C03F3708C13F442D6930B6000030B70062
:1009B0003308083E860087013608C03F3708C13F2C
:1009C0006430B6000030B70033080A3E8600870165
:1009D0003608C03F3708C13F442D3308113E86001A
:1009E00087010108B600B7013708003A0319F92C4E
:1009F000042D3608003A0319A22C013A0319BB2C26
:100A0000033A0319D42C042D442D3308103E8600DC
:100A100087010430810200302000AF000030AE00BA
:100A20003930AD003830AC0021003308043E860078
:100A30008701403FB600413FB70036082000A000C4
:100A4000210037082000A100A201A3010030A70067
:100A50000030A6000330A500E830A40096316226DD
:100A600083312308B3002208B2002108B100200816
:100A7000B0008A319C2283312D08BB002C08BA00BB
:100A8000943170248331DC2D3308103E86008701B9
:100A900004308102DC2D0A30B6003308103E860097
:100AA00087013608810000302000AF000030AE0022
:100AB0003930AD003830AC0021003308043E8600E8
:100AC0008701403FB600413FB70036082000A00034
:100AD000210037082000A100A201A3010030A700D7
:100AE0000030A6000330A500E830A400963162264D
:100AF00083312308B3002208B2002108B100200886
:100B0000B0008A319C2283312D08BB002C08BA002A
:100B1000943170248331DC2D0330B6003308103E4D
:100B2000860087013608810000302000BA00BB0033
:100B3000943170248331DC2D3308103E8600870108
:100B40000108B600B7013708003A0319A82DDC2DBB
:100B50003608003A0319982C013A0319982C033AE5
:100B60000319982C013A03194B2D073A0319A12CAC
:100B7000013A0319A12C033A0319ED2C013A031988
:100B8000982C0F3A0319982C013A0319982C033A20
:100B900003198C2D013A0319052D073A0319442D29
:100BA000013A0319ED2CDC2D03305406031DDC2D16
:100BB000330892316A228331210054080319E82D49
:100BC0003308B6003608AD00FC3080313D28D40132
:100BD000903135088200E600520886008701403FC8
:100BE000D400413FD5005408840055088500120008
:100BF000253A031D7F2F52088600870101308107A7
:100C000041310318810A2100CA01CB01F901FA011F
:100C1000FF30CC00FF30CD002000DA01DB01262EB2
:100C20007914520886008701013081074131031889
:100C3000810A262EF914112E7915112EF915112E6F
:100C40007916112E0130DA000030DB005A085B04FF
:100C5000031D4F2E520886008701403FD400413FBC
:100C6000D50054088400550885000008D600D70137
:100C70005708003A03193D2E222E5608203A031930
:100C80001E2E033A0319202E083A03191C2E063A89
:100C90000319102E1D3A03191A2E222E262E791C06
:100CA000552EFD30F905FF30FA0552088600870100
:100CB000403FD400413FD5005408840055088500CA
:100CC00012002A3A031D822E520886008701013045
:100CD000810741310318810A530886008701010802
:100CE0008400850102308107003F2100CA00013FD6
:100CF000CB00CB1FC32E7914CA09CB09CA0A03192A
:100D0000CB0AC32E520886008701403FAE00413F08
:100D1000AF008C312B2485312F082100CB0020001F
:100D20002E082100CA009C2E52088600870101303F
:100D3000810741310318810A20005208860087018B
:100D4000403FD400413FD500540884005508850039
:100D50000008D03ED600FF3003180030D700003026
:100D600057020A30031956020318B82E0130B92E63
:100D70000030D800D9015808DC005908DD005C08B3
:100D80005D04031D942E2000520886008701403F19
:100D9000A000413FA1003C30A2009830A3000230E7
:100DA000A4000030A5008A314A22853120082104A0
:100DB000031D0C2F52088600870102308107413144
:100DC0000318810A53088600870101088400850101
:100DD00002308107003FDE00013FDF00E001E1015A
:100DE000E201E301E401E5015E08BA005F08BB002F
:100DF0006008BC006108BD006208BE006308BF0057
:100E00006408C0006508C10066088D318F253B0865
:100E1000D3003A08D2000800520886008701403FFC
:100E2000D400413FD50054088400550885001200C5
:100E3000753A031D4D2F5208860087010130810746
:100E400041310318810A5308860087010108840094
:100E5000850102308107003FDE00013FDF00E00135
:100E6000E101E201E301E401E5015E08BA005F0887
:100E7000BB006008BC006108BD006208BE006308DA
:100E8000BF006408C0006508C10066088D318F2569
:100E90003B08D3003A08D2000800520886008701B8
:100EA000403FD400413FD5005408840055088500D8
:100EB0001200253A031D742F520886008701013065
:100EC000810741310318810A2530A0000030A100BC
:100ED0006608D4005408A20089311D210130200089
:100EE000D2000030D300080052088600870101308C
:100EF000810741310318810AD201D3010800520849
:100F000086008701403FD400413FD500540884004B
:100F1000550885000008D600D7015608A0005708DC
:100F2000A1006608D8005808A20089311D2185312A
:100F300020005208860087010130810741310318E3
:100F4000810A6E2FCD004B08213E860001308700BC
:100F5000103001060319E12F4C08CE004E08BB00EB
:100F6000BC014B089431AC24873120004C08CE00E2
:100F70004B08213E86000130870001084B07CF0057
:100F80004F0A8600013087004E0881000130CE00F4
:100F90004B08213E8600013087004E0881071F3034
:100FA000CE004B08213E8600013087004E088105A7
:100FB0004B08213E8600013087000108031DF92FF0
:100FC000EE2F4B08CE004E08C3000230CF004F0872
:100FD000C400C501C50A0C30883195284B08CE00E5
:100FE0004E08C300C401C40AC501C50A0E308831C9
:100FF000952890314D0882008531E72D8F31FD2FE6
:10100000A4002408A2002208A300240886000130BE
:1010100087000108031911280130A2002208A40743
:10102000052823082402A000A101A01BA103080099
:10103000A100A201A20A22003C1952282000210886
:10104000A00020082200B600BC103C153C100E3059
:101050002000A00020082200BA00F430B4000130C3
:10106000B500BC15C430A0001130A100AC01C430E3
:10107000A2001130A300AD01C430A4001130A500BE
:10108000AE01C430A6001130A700AF01C630A800E1
:101090001130A900B0019131C82188319231A022CC
:1010A0002000A2012000220808000310FC0D0310FC
:1010B000FC0D20000E187C148E18FC140F30A000BC
:1010C0002008FC057C084D3E8600013087000108A1
:1010D0000319932804302100D035D10D890B6C28D9
:1010E0007C082000A000A10120082100D0042000DD
:1010F00021082100D1042B305006031D8728013020
:101100002000A00020082100D400FF300800173084
:101110005006031D932801302000A0002008210064
:10112000D4000130080000300800C600440803194C
:10113000A428033044020318A42845080319A4284E
:1011400011304502031CA928430894311824883122
:10115000D328023044060319B028C901CA01B428B3
:101160004030C9000030CA00490845077F3EC7002B
:101170004708BB00BC01BC0A43089431AC24883149
:1011800020004408C7000330C735FF3E031DC428B4
:1011900047354507EF3EC8004308213E8600013031
:1011A0008700480881009031460882009131DA2199
:1011B00088312000AA00220037088600870120001D
:1011C0002A0881000130AA002A082200B70701304E
:1011D000B8020030B93B380839040319F3289131BB
:1011E000E42105300800BC15FB28923100220800DC
:1011F0009131FC2108002C082000AA002A08A9002F
:10120000220021088A0020080A0089312000AB0052
:10121000AC012C08003A03190E29F8282B08013AD2
:101220000319F828033A0319F528013A0319F52898
:10123000073A0319F828F82808002208031D220895
:10124000031D262920089131C12108002208033EF0
:101250008600870116000104031949292208033E6C
:1012600086008701403FA300413FA400220A860078
:101270008701403FA500413FA6002608803AA7000D
:101280002408803A2702031D472923082502031852
:10129000080020002008A300220886008701220AF7
:1012A0008400850100080107A4002408860001309D
:1012B000870023088100220A860087010130810708
:1012C00041310318810A0800BA0037080319902930
:1012D0003608B8000330B835FF3E031D6B2938359A
:1012E0000438B9003908B3003A08953134258931FA
:1012F00000320032000020003608B8000330B83554
:10130000FF3E031D7F293835B9003908B3003A087C
:10131000953134258931A630890B8C29003208009B
:101320003608B8000330B835FF3E031D9329383521
:101330000538B9003908B3003A08953134258931A8
:1013400000320032000020003608B8000330B83503
:10135000FF3E031DA729383501388429B800791CC0
:10136000B9293808B3003308A800300895310F2593
:101370008931B21BC0293208B7003108B600C22932
:10138000B601B701B401B5013508803AB30037089A
:10139000803A3302031DCE29360834020318E229AD
:1013A00020302000A0000030A1003808B30033082E
:1013B000A20089311D21893101302000B40700309D
:1013C000B53DC4297918ED2920003808B300330849
:1013D000A800300895310F25893120003008883168
:1013E000002036082007B0003708213DB100080072
:1013F000923120228931003A031D082A2E2A913188
:10140000E82108009131EC2108009131F421080015
:1014100022002F082000AA002A08A9000630203E3A
:10142000860001308700413F8A00403F0A008A3130
:101430002000AB00AC012C08003A0319202A052A31
:101440002B08013A0319052A033A0319FF29013A27
:101450000319022A073A0319052A052A22003C101B
:101460001730203E860001308700403F8400850110
:10147000810A000892311A22893101302200B80213
:101480000030B93B38083904031D482A06300800EB
:10149000033008002108A8002008A7002308AA009C
:1014A0002208A9000130A4020030A53B240A031D34
:1014B000842A250A031D842AA001A1010800290805
:1014C00084002A088500120003198B2A24082504A9
:1014D00003198B2A290884002A0885000008A60021
:1014E000270884002808850000082606031D8B2A8B
:1014F0000130A7070030A83D0130A9070030AA3D00
:101500000130A4020030A53B27088400280885008C
:101510001200031D5F2A27088400280885000008A0
:10152000A600290884002A08850000082602A000D9
:10153000A101031CA10308000030B8000030B7006F
:101540000030B6000030B5002F082E042D042C0406
:101550000319E52AB901B90AAF1BBA2A0130AC3523
:10156000AD0DAE0DAF0D890BAF2A0130B4003408BC
:10157000B907AC2A0130B535B60DB70DB80D890BDA
:10158000BB2A2F083302031DCF2A2E083202031D67
:10159000CF2A2D083102031DCF2A2C083002031C4C
:1015A000DA2A2C08B0022D08B13B2E08B23B2F08D6
:1015B000B33B35140130AF36AE0CAD0CAC0C890B1F
:1015C000DB2A0130B902031DBA2A3808AF003708F8
:1015D000AE003608AD003508AC000800CD004B0861
:1015E000213E8600013087001030010603192D2BA3
:1015F0004C08CE004E08BB00BC014B089431AC2413
:101600008A3120004C08CE004B08213E8600013074
:10161000870001084B07CF004F0A86000130870082
:101620004E0881000130CE004B08213E860001307B
:1016300087004E0881071F30CE004B08213E8600F0
:10164000013087004E0881054B08213E860001309D
:1016500087000108031D452B3A2B4B08CE004E088E
:10166000C3000230CF004F08C400C501C50A1030C6
:10167000883195284B08CE004E08C300C401C40A27
:10168000C501C50A12308831952890314D08820075
:10169000200821042204230424042504260427040A
:1016A00003199F2BB101B10AA71B632BA035A10D14
:1016B000A20DA30DA40DA50DA60DA70D0130B00020
:1016C0003008B107542B27082F02031D812B260851
:1016D0002E02031D812B25082D02031D812B2408BA
:1016E0002C02031D812B23082B02031D812B2208B2
:1016F0002A02031D812B21082902031D812B2008AA
:101700002802031C932B2008A8022108A93B2208C9
:10171000AA3B2308AB3B2408AC3B2508AD3B26087D
:10172000AE3B2708AF3BA736A60CA50CA40CA30C18
:10173000A20CA10CA00C0130B102031D632B2808E0
:10174000A0002908A1002A08A2002B08A3002C0849
:10175000A4002D08A5002E08A6002F08A700080049
:1017600031308600003087000830B00000301E00A5
:10177000B00BB72B200821042204230424042504E1
:101780002604270403191A2CB901B90AA71BD52B63
:10179000A035A10DA20DA30DA40DA50DA60DA70D9D
:1017A0000130B0003008B907C62BB135B20DB30D0A
:1017B000B40DB50DB60DB70DB80D27082F02031DDA
:1017C000FB2B26082E02031DFB2B25082D02031DD3
:1017D000FB2B24082C02031DFB2B23082B02031DCB
:1017E000FB2B22082A02031DFB2B21082902031DC3
:1017F000FB2B20082802031C0E2C2008A80221081D
:10180000A93B2208AA3B2308AB3B2408AC3B250894
:10181000AD3B2608AE3B2708AF3B3114A736A60CDC
:10182000A50CA40CA30CA20CA10CA00C0130B902B5
:10183000031DD52B3108A0003208A1003308A200F7
:101840003408A3003508A4003608A5003708A60010
:101850003808A7000800BB01BC01B401B501BA01FA
:10186000BA0A2E0884002F0885001200203A0319B6
:101870004B2C2E0884002F0885000008F73EB0008E
:10188000FF3003180030B100003031020530031979
:1018900030020318BA013A08B000B1013008B600AE
:1018A0003108B700360837040319602C0130AE0741
:1018B0000030AF3D2F2C0130B4000030B500922C29
:1018C0002E0884002F0885000008B000B1013108FF
:1018D000003A03196C2C962C30082B3A0319922CE1
:1018E000063A03195B2C962C2E0884002F088500DD
:1018F0000008B0003C08A9003B08A8000A30AA0074
:101900000030AB009331E0238C312908B20030085D
:101910002802B100031CB2033108303EBB00003086
:10192000323DBC000130AE070030AF3D2E088400D0
:101930002F0885000008D03EB000FF3003180030AB
:10194000B100003031020A30031930020318AA2C0A
:101950000130AB2C0030B200B3013208B8003308BC
:10196000B90038083904031D742C34083504031DEC
:10197000C52C3B09B0003C09B100B00A0319B10AFB
:101980003008AE003108AF0008003C08AF003B084B
:10199000AE0008002000C3004108C20043088600D2
:1019A00001308700420881004308213E8600013053
:1019B000870081010830C2004308223E86000130C2
:1019C000870042088100B3014308953134258C31EA
:1019D000C3302000C200CD30890BEC2CC20BEC2CA4
:1019E00003302000C2004208B600B701B70A43081E
:1019F000893164218C3121302000C2007630890B7E
:101A0000FF2CC20BFF2C000003302000C200420854
:101A1000B600B701B70A4308893164218C31A6307A
:101A2000890B102D003203302000C2004208B6009E
:101A3000B701B70A4308893164218C312130200075
:101A4000C2007630890B222DC20B222D00000230FD
:101A50002000C2004208B600B701B70A4308893126
:101A600064218C3121302000C2007630890B362D64
:101A7000C20B362D000028302000C2004208BB00F7
:101A8000BC01BC0A43089431AC248C315330890B1F
:101A9000472D00000C302000C2004208BB00BC01F2
:101AA000BC0A43089431AC248C315330890B562D39
:101AB00000002000BB01BB0ABC01BC0A43089431F2
:101AC000AC248C3121302000C2007630890B662D89
:101AD000C20B662D000006302000C2004208BB0089
:101AE000BC01BC0A43089431AC248C315330890BBF
:101AF000772D000002302000C2004208BB00BC016C
:101B0000BC0A43089431AC248C3121302000C2003F
:101B10007630890B892DC20B892D00000800C50085
:101B20002100CD1B972DFD30F905FF30FA054D083A
:101B3000803A2000C20080304202031DA22D0130F5
:101B400021004C020318AA2D01302000C3000030F0
:101B5000C400B22D21004D082000C40021004C0813
:101B60002000C30021004B082000C70021004A08C4
:101B70002000C6003A08C8003B08C9003C08CA005B
:101B80003D08CB003E08CC003F08CD004008CE0009
:101B90004108CF001F30D0000030D1002300E20107
:101BA000522E480849044A044B044C044D044E0488
:101BB0004F04031DF32D4408803AC20080304202D6
:101BC000031DE42D013043020318F32D20004708C4
:101BD000803AC20080304202031DF02D01304602DF
:101BE0000318F91C572EFF302000D007FF30D13DDD
:101BF0000A30A000A101A201A301A401A501A60130
:101C0000A7014808A8004908A9004A08AA004B08EB
:101C1000AB004C08AC004D08AD004E08AE004F08BC
:101C2000AF008B3148238D312008303EC200500870
:101C3000C33E86000130870042088100FF30C307A1
:101C4000FF30C43DFF30C607FF30C73D0A30A0005B
:101C5000A101A201A301A401A501A601A7014808B1
:101C6000A8004908A9004A08AA004B08AB004C0884
:101C7000AC004D08AD004E08AE004F08AF008B31F0
:101C8000B0238D312008C8002108C9002208CA00ED
:101C90002308CB002408CC002508CD002608CE0060
:101CA0002708CF00200050085104031DD12D20002B
:101CB0005008C33EC2004208B0004708B2004608C0
:101CC000B10045088931AE213108BB003008BA00A7
:101CD0000800BA0033080C3E860087013608C03F72
:101CE0003708C13F33080E3E860087013808C03FE1
:101CF0003908C13F0F30BB000030BC003308083E3C
:101D0000860087013B08C03F3C08C13F0530BB004F
:101D10000030BC0033080A3E860087013B08C03F04
:101D20003C08C13F3308063E860087010030C03FB3
:101D3000C13F3308043E860087010030C03FC13FE9
:101D40003308113E8600870181013308103E86006A
:101D5000870181013408BB003308123E86008701E9
:101D60003B0881003508BB003B082000C100210072
:101D70003308123E8600870101088C31CA248E3157
:101D80002100BD010E30BB003B08BE001130BB007E
:101D90003B08BF001130BB003B08C0001130BB0046
:101DA0003B08C1001130BB003B08C2000E30BB0035
:101DB0003B08C300C4012000C101BD302100BB00AD
:101DC0003B082000C200210034089731C8278E311B
:101DD0001F302100BB003B08BD001130BB003B0899
:101DE000BE000E30BB003B08BF000E30BB003B08FE
:101DF000C0000E30BB003B08C1000E30BB003B08EA
:101E0000C2001130BB003B08C3001F30BB003B08C1
:101E1000C4002000C101C10ABD302100BB003B0845
:101E20002000C200210034089731C8278E312100DC
:101E3000BD010430BB003B08BE000430BB003B08C2
:101E4000BF000430BB003B08C0000430BB003B08AF
:101E5000C1000430BB003B08C2000430BB003B089B
:101E6000C300C4010230BB003B082000C100BD30EC
:101E70002100BC003C082000C2002100340897313A
:101E8000C8278E311F302100BB003B08BD001B302E
:101E9000BB003B08BE001B30BB003B08BF001B3033
:101EA000BB003B08C0001B30BB003B08C1001B301F
:101EB000BB003B08C2001B30BB003B08C3001F3007
:101EC000BB003B08C4000330BB003B082000C1003E
:101ED000BD302100BC003C082000C20021003408B5
:101EE0009731C8278E3110302100BB003B08BD0060
:101EF0000230BB003B08BE00BF010830BB003B08FE
:101F0000C000C101C201C20AC3010430BB003B08CA
:101F1000C4000430BB003B082000C100BD302100DC
:101F2000BC003C082000C200210034089731C827BB
:101F30008E3111302100BB003B08BD00BE010930CD
:101F4000BB003B08BF001030BB003B08C0000230A4
:101F5000BB003B08C1000830BB003B08C200C30106
:101F60001130BB003B08C4000530BB003B0820001B
:101F7000C100BD302100BC003C082000C20021008F
:101F800034089731C8278E3115302100BB003B083B
:101F9000BD000A30BB003B08BE001530BB003B084B
:101FA000BF000A30BB003B08C0001530BB003B0837
:101FB000C1000A30BB003B08C2001530BB003B0823
:101FC000C3000A30BB003B08C4000630BB003B081E
:101FD0002000C100BD302100BC003C082000C20030
:101FE000210034089731C8278E3121003308BB0007
:101FF0003B08AD00FE3080313D2880313A08820038
:1020000081311B298131EA2982312D2A8231B62A78
:102010008231F72A8331392B8731AC2F8731F92F61
:102020008A31F82A8B31452B8231172A8231172ABF
:102030008231172A82316F2A82316F2A82316F2AC8
:1020400082316F2A8231C62A8331072B8331492B93
:102050009531072D813109298131D8299631F32E07
:102380000800080019100800013008000530080096
:102390002E000F10080023009012080023001114D3
:1023A00008002300911408002300111508002300E1
:1023B0009115080023000C0808002E000F140800D7
:1023C000230091161116080023009112111608001F
:1023D0009131D121013008009131D1210230080022
:1023E0009131D121013008009131D4210030080011
:1023F0009131E421053008009131E0210A300800D4
:102400009131E021093008002E000F180800042A3D
:1024100000309431522408003C3021009E00080016
:102420002200BC10BB010E3008002200BC10BB0112
:102430000E3008002000A000200823008C000800B7
:102440002300110E890C890C0139080022003C1070
:102450009131D72104300800640080010131890BDB
:102460002D2A0034FE0012001E00FE0B332A003419
:1024700022003C14363592311A2203300800220023
:102480003C140314360D92311A22053008002F0037
:1024900096019701980199019A019B010800210872
:1024A0002100E900200020082100E8000800703029
:1024B00031008D008F0191010230930092010800DC
:1024C0002200BC1C080092310422923195318325F0
:1024D0009231602A2000B3003308973128279231C7
:1024E000330897315C270800803023008F002830A4
:1024F0009000910131308D00901208008F3026003D
:102500008E008D018C0124001E08FC3901389E00CC
:1025100008008F30260092009101900124001E08CF
:10252000F33908389E0008002608A1002508A000FD
:102530002708A8002808A200003095315B25080074
:102540002300901A080080308F00283090009101FD
:1025500031308D0090160800013090008F019101FC
:10256000FF308D008C012E009010903025008E00E1
:10257000080001302500960095019701FF30930077
:1025800092012E0090119030250094000800240044
:102590000E1DD12A0E1071088D0070088C000E14CB
:1025A000080071088D0070088C00080000340134A8
:1025B0000134003401340034003401340134003477
:1025C000003401340034013401340034023020007E
:1025D000A0000030A100290893314223923100303D
:1025E0002000A500A600A701923194220430080023
:1025F00001302000A0000030A100290893314223BF
:10260000923100302000A500A600A701923194224B
:102610000230080002302000A0000030A10029088C
:1026200093314223933100302000A500A600A7017A
:10263000923194220230080001302000A0000030C6
:10264000A100290893314223933100302000A500D6
:10265000A600A70192319422043008001010210036
:102660006B08F1006A08F0009231C7229331210013
:10267000680869040319080069088A0068080A00E4
:1026800093310800A3002200BC1D0800200023088D
:10269000A20022082200B700200021082200B90071
:1026A000200020082200B800BC1108002000C20051
:1026B000BB01BB0ABC01BC0A42089431AC24933173
:1026C00021302000C1007630890B642BC10B642BB4
:1026D000000008002000A200220821009E0093179D
:1026E00013131314000021001318732B0D0820007E
:1026F000A10021000C082000A00008000130D20732
:102700000030D33D2C305206031D932B5303031D81
:10271000932B07306502031C912B0330F8007808D7
:10272000D400D201D3019631912608002000200860
:10273000D03EA200FF30213DA300003023020A302A
:10274000031922020318A62B0130A72B0030A40086
:10275000A5012408A0002508A100080020002908E0
:1027600086008701403FA000413FA1002908023EAA
:102770008600870101089331422393310030200005
:10278000A500A600A7019231942202300800220081
:102790008E018F0190019101920193018D01210021
:1027A0009E019B019C0194019501960197019A015C
:1027B0009901273098008430930028309D0008004C
:1027C000AC01AD01281CE82B2A08AC072B08AD3D55
:1027D0000130AA35AB0D890BE92B0130A936A80CC5
:1027E000890BEE2B28082904031DE22B2D08A900D4
:1027F0002C08A8000800A101A10A2200BC18152C71
:102800003C11FF302000A00020082200B6009131CA
:10281000C82193319131C22193319131CB212200D2
:102820003B082000A0002008A1002000210808008B
:102830002000C2000230C1004108BB00BC01BC0A3C
:1028400042089431AC24943121302000C10076300C
:10285000890B282CC10B282C000020004208213EA7
:10286000860001308700810108002000A401A40A2D
:1028700020302006210403194A2C2008F73EA2002C
:10288000FF30213DA300003023020530031922024E
:102890000318A4012408A200A3012208A000230811
:1028A000A10008002000B100B201B20A2200BC1849
:1028B0006D2CBC142000B20131080319632C2200D6
:1028C000BA01BA0A682C0230B00030082200BA00FF
:1028D0009131CE21943192316022200032080800DB
:1028E000FF30BA050330BB0526000E1E852C0630CE
:1028F0002000BA35BB0D890B792C3B0826008D00D2
:1029000020003A0826008C00080020003B08260022
:102910008D0020003A0826008C00080092314722E2
:1029200094319231742294319731912794319231BC
:102930005722943192317E229431923189229431FE
:102940009331C72394319231B92294319231AC2220
:1029500094319431CC240800C0003B08BD00043001
:10296000BD36890BB02C3D08BE003E08B6003C08C1
:10297000BF003F08B700400889316421943120002E
:102980003B08BD003D08B6003C08BE003E08B7004D
:10299000400889316421080024008F019001013032
:1029A0009100FD308D008F308C002E00101024001F
:1029B0000D082100EB0024000C082100EA002E0085
:1029C0001A14C0302000A0001130A10092314F2213
:1029D000313024008E000800D2005108D300530883
:1029E000D5005508860001308700010803190C2D19
:1029F0005008D3005308CB005508860001308700EB
:102A00000108D4005408CC0028308A31EE2A013065
:102A1000D3005308D507F12C903152088200AF0043
:102A2000AD01AE012D082F07A9002908860001304D
:102A300087000108AA002A08AC002C080319080026
:102A40002C08A900AA012908A0002A08A10028082A
:102A5000AB002B08A20089311D21953101302000E7
:102A6000AD070030AE3D122DB5003508223E860080
:102A7000013087000108B4003408B304350886002B
:102A8000013087000108883118209531003A031978
:102A90003E2D0130A0000030A1003330933142239D
:102AA00095319231082295319331FB239531013ACA
:102AB000031D0800542DA400200821040319732DC0
:102AC0002435203E8600013087002008C03F2108C1
:102AD000C13F2208A30024082C3E86000130870055
:102AE0002308810008002435203E8600013087003D
:102AF000C430C03F1130C13F24082C3E8600013055
:102B00008700810108009131C821953122003C1CC9
:102B1000952D923120229531003A0319952D0F30D1
:102B20002000AD002D082200BA0022003A08200043
:102B3000AD00AE01AD35AE0D00302D0784009830EC
:102B40002E3D8500013F8A00003F0A00953120009C
:102B5000AF002F082200BA000800A700A230200012
:102B6000EF006F082100A60027082000EF006F0883
:102B70002100A800A901AA01AB01AC012108200095
:102B8000E800210020082000E700A630EF006F08D1
:102B9000E900A8309531D725210029082707200012
:102BA000EF006F0886000130870081010800EC000B
:102BB0006808EE006708ED002100C801C901200087
:102BC0006D0884006E08850012000319FB2D6D301E
:102BD000EA006A08D2006908EB006B08D3006C08B1
:102BE0008531EB25953152082100C8072000530894
:102BF0002100C93DDF2D210049082000E800210007
:102C000048082000E70008002200BC15112E913171
:102C1000F02108009131DD21033008009131F421C9
:102C200008002C082000AA002A08A9002200210878
:102C30008A0020080A0096312000AB00AC012C0865
:102C4000003A0319242E0E2E2B08013A03190E2EDA
:102C5000033A0319072E013A0319072E073A0319FD
:102C60000A2E0E2E080022003C1002302000AA007E
:102C70002A082200BB00422E9131F0210800913138
:102C8000F42108002E082000AA002A08A900043018
:102C9000203E860001308700413F8A00403F0A0005
:102CA00096312000AB00AC012C08003A0319592ED4
:102CB0003F2E2B08023A03193C2E013A03193C2EF1
:102CC0003F2E08000030AB000030AA000030A90001
:102CD0000030A800201C742E2408A8072508A93D50
:102CE0002608AA3D2708AB3D0130A435A50DA60D49
:102CF000A70D890B752E0130A336A20CA10CA00CD8
:102D0000890B7C2E2308220421042004031D6A2E33
:102D10002B08A3002A08A2002908A1002808A00067
:102D2000080020000E0C890C0139F000F10121008F
:102D30004F08F3004E08F200F235F30D70087204EC
:102D4000F40071087304F500F0307404F600FF30ED
:102D50007504F7007608CE007708CF00F0304E06F5
:102D6000031DBF2E4F0A031DBF2E7B08031D080045
:102D7000FB01FB0A0230F0007008D4000800FB01E0
:102D8000080094318E249631D5302100C5004508C5
:102D9000B300A030C6004608B4002730C70047087B
:102DA000B5009830B6003A30B700E830B8000330CC
:102DB000B90002308E31692E7E302000A000133021
:102DC000A10092314F2296318B170B17D530C500D9
:102DD0004508B300883155202100C6004608B400DC
:102DE0002E3083314D2BE62EA501A60120082104AB
:102DF0000319232FA701A70AA11B082F0130A03513
:102E0000A10D890BFF2E0130A4002408A707FC2E7A
:102E10000130A535A60D890B092F21082302031DBA
:102E2000132F20082202031C1A2F2008A2022108B7
:102E3000A33B25140130A136A00C890B1B2F0130B8
:102E4000A702031D082F2608A1002508A0000800DE
:102E5000B20092310C2297310A3093316A239731B4
:102E60002108B1002008B0003008A0003108A100FE
:102E7000A201A3010030A7000030A6003A30A5004F
:102E80009830A4009631622697312008AC002108C2
:102E9000AD002208AE002308AF000A30AF36AE0CFA
:102EA000AD0CAC0C890B4E2F3208860087012C0824
:102EB000C03F2D08C13F0800B20092310C2297316B
:102EC0000B3093316A2397312108B1002008B000FC
:102ED0003008A0003108A100A201A3010030A70022
:102EE0000030A6001330A5008830A4009631622679
:102EF00097312008AC002108AD002208AE0023085D
:102F0000AF000A30AF36AE0CAD0CAC0C890B822F83
:102F10003208023E860087012C08C03F2D08C13FC1
:102F200008002000960197019801FF309100DE30E3
:102F30009200FF309300E0303E00CE00DE30C30050
:102F4000FF30B800E501C401B9010730CF00BA0174
:102F5000C501D001FF30BB00FF30C600FF30D100FB
:102F6000FF30BC00FF30C700FF30D2000830E8005F
:102F700013303D00C50014303E00A3000930980016
:102F80000A309D001530A40014303D00C600080032
:102F90002000C6004108C3000230C335FF3E031DB8
:102FA000CD2F4335403EC4004408BB00BC01BC0AE1
:102FB00046089431AC2497312000C50145084207EA
:102FC000C3004308860087010108C4004408BB0011
:102FD000BC0146089431AC24973101302000C30075
:102FE0004308C50708304502031CDE2F0230C3002A
:102FF0004308BB00BC01BC0A46089431AC2408005D
:10300000103412343F34123438341234F834093462
:10301000D63408342634123404341634E8341134E7
:10302000EC341134F0341134F4341134F8341134F4
:10303000FC34113400341234153412343334163461
:10304000203425343234683475342E342534303409
:10305000333468347534203441340034203425341A
:103060003234683475342E34253430343334683493
:0E30700075342034563400346834753400341E
:020000040001F9
:0A000E00FA373F3F9F3FFF1FFF3FFF
:00000001FF
